:400000000080002011000000B5090000B509000008B500F0D1FCC04638B51222304B1A6001F0E6F92F4801F07FF8012001F000FA302001F0F7F82C4A2C4B1A602C4C80258E
:40004000ED0525602B4A116802230B4313602A4A2A4B1A602A4A136808218B431360FA20C00001F091F9274801F0D2F8264A274B1A60274B274A1A60BC218901264A1160F9
:40008000264A1A60D0218901254A1160254A1A60E021C900244A1160244A1A6082221206234B1A608022D202224B1A604322224B1A60023A214B1A60422321490B6021496E
:4000C0000A60214A13604022204B1A600820204901F04EF8082001F03FF8256038BDC04630001040001BB7000600008004010B400C020B4078002E402D3E00007C002E401D
:400100006CF02E40DC050000007FBB000C0301400000014043FF00800403014041FF00800803014042FF00800003014040FF008008010B4000010B403801014030010140E3
:4001400024010140200101401C010140180101404915000010B572B60022374B1A600132364B1A70002410E0354863001A195200821891881B195B001A5AC318588800046A
:40018000104300F081FC0134E4B2012CECD92C49081C0C30343100F05DFC2A4A2A4B1A60C0229205294B1A6099231B04284A13602849294A1160294A1360294A1360294A21
:4001C00013608022D205284B1A60284A284B1A600223284A1360284A1360284B197802220A431A70264802783C218A4328390A430270197816220A431A701E22214B1A60E1
:40020000214A224B1A60224A224B1A604022224B1A60C0225203214B1A60E222204B1A60204A214B1A602222204B1A60FFF7F4FE00F040FC10BDC0466CF02E401C700F40C5
:400240004C4B0100303303EE000002400003024000500F4000002D5408500F4010500F4020500F4030500F4038500F4018880800600120402000104000800F4000700F40C9
:4002800001700F4000000440B06DD80008000440B66D1B0008010440000204400802044000030440400CD800080304401803044010B5064C2378002B07D1054B002B02D0BF
:4002C000044800E000BF0123237010BD3813002000000000404B010008B5084B002B03D00748084900E000BF07480368002B00D108BD064B002BFBD09847F9E700000000CA
:40030000404B01003C130020480E002000000000024A1368013313607047C0465413002010B501F089FB054C60603A2101F060FF2081022001F0BEFB10BDC04654130020DD
:40034000FA23DB00984201DD012000E000207047F0B54F4680B484B0002302AAD38003AA138062B65A4801F043FD5A4801F07EFD594800F0F3FB01F08DFB01F011FB01F012
:400380001FFB01F099FC012001F04AFC534801F039FC00F0E7F801F00DFA01F09BF90023019399460026012001F014FB02AB9F1DD880002001F00EFB051C03AC20800023ED
:4003C000F85EFFF7BDFF0090281CFFF7B9FF051C012001F01BFD0A2000F002FF002001F015FD3F48083000F013F9381C00F044F9201C00F075F900F0A0FE3A4F387002F063
:4004000065F8387800F09DFE00F0C2FA01281BD0002802D0022837D0C5E7002E02D001F063FC002600F0BAFA041C00F0BDFA051CA14502D1019A8242B5D0201C291C00F07D
:400440009FF80195A146AEE7002E0FD10F2000F0BBF800F05BF8224B1B890E2BA3D800221F4B1A6001F08CFC01369CE71C4B1B68002B03DD01F038FC002694E70F2000F0D8
:40048000A3F800F055F88EE7002E02D001F02CFC0026072000F098F8009B002B04D0002D02D100F045F87EE7009B002B04D1002D02D000F031F876E7009B002B04D0002D06
:4004C00002D000F04FF86EE700F020F86BE7C0462103000011030000AD070000444B010054130020B324002008B5012001F072F908BDC04608B5032001F06CF908BDC0463E
:4005000008B5012001F06CF908BDC04608B5FFF7EBFFFFF7F5FF08BD08B5FFF7EBFFFFF7EFFF08BD08B5032001F05AF908BDC04608B5FFF7D9FFFFF7F5FF08BD08B500281C
:4005400002D101F077F802E0083001F073F808BD08B5002802D101F0DDF802E0083001F0D9F808BD08B5002001F034F9002001F037F90020FFF7E2FF0020FFF7E9FF08BDF8
:4005800070B50F250D4009090124261C064043081C400B1C2B4302D1FFF7E4FF13E0081CFFF7CCFF281CFFF7D3FF002C02D0FFF79BFF01E0FFF79EFF002E02D0FFF7A0FF73
:4005C00001E0FFF7AFFF70BD10B5041CFFF7B6FF201CFFF7BDFF10BD00B585B00A4B1B78022B0FD10C336B4400221A801A3269460A81009302238B8068460021034A0023ED
:400600000FF02AFC05B000BDD2240020D824002010B584B0144B1B78022B22D1002820D0041C01A8113303810194113B838000210E4A00230FF010FC0D4B1B68002B10D0CC
:400640000C4B1A880021635E9A420AD0074A137850780002184301A90EF070FE2288054B1A8004B010BDC046D2240020D8240020B82400204C0E002010B584B0144B1B7824
:40068000022B22D1002820D0041C01A81F33038101941F3B838000210E4A00230FF0DCFB0D4B1B68002B10D00C4B5A880021635E9A420AD0074A137850780002184301A99D
:4006C0000EF03CFE2288054B5A8004B010BDC046D2240020D8240020B42400204C0E002010B584B0144B1B78022B22D1002820D0041C01A8233303810194233B83800021E6
:400700000E4A00230FF0A8FB0D4B1B68002B10D00C4B9A880021635E9A420AD0074A137850780002184301A90EF008FE2288054B9A8004B010BDC046D2240020D824002029
:40074000B42400204C0E002070B584B0154B1B78022B24D100F0DCF9434243416A46D370033201AC1023238101920126A6800E4D201C00212A1C00230FF06EFB00F042FF85
:40078000434243416A4693700232172323810192A680201C00212A1C00230FF05DFB04B070BDC046D2240020D824002038B50C1C282808D002D8012805D0CDE0412812D06F
:4007C0004C2821D0C8E00022644B1A60002000F021FA00F099FC002000F0C6F8FFF7C2FEFFF7FAFEB8E0FFF7AFFF0020FFF710FF0020FFF741FFFFF7EFFE00F01BFC00F0EE
:40080000D9FF00F067FFA7E08B89102B15D1081D0021534A30330FF01FFB00280DD163681B7858425841C0B200F066F94C4A13785078000218430EF0D7FDA389172B15D1AB
:40084000201D0021464A29330FF006FB00280DD163681B7858425841C0B200F0C7FE404A13785078000218430EF0BEFDA3891A2B30D1201D00213A4A26330FF0EDFA0028C2
:4008800028D163681B781B079B0F012B08D0002B02D0022B08D00BE0002000F065F80AE0022000F061F806E0012000F05DF802E0002000F059F86368187800F05BF863686A
:4008C000587800F05FF8264A13785078000218430EF08AFDA389142B12D1201D204D00212A1C2C330FF0B8FA63681B78012213401A4A13602B786878000218430EF074FDD3
:40090000A389222B12D1201D154D00212A1C1E330FF0A2FA63681B7801221340114A13602B786878000218430EF05EFDA389262B12D1201D0A4D00212A1C1A330FF08CFA61
:4009400063681B7801221340064A13602B786878000218430EF048FD38BDC046B8240020D8240020B4240020014B18707047C0466013002003231840014B58707047C0463F
:4009800060130020014B98707047C04660130020014B18787047C04660130020014B58787047C04660130020014B98787047C04660130020FEE7C04670B50F4E0F4D13E000
:4009C00029686B68AC68002202E001C901C30432A242FAD1E868002202E0002102C304328242FAD11035013E002EE9D101F0F2FCFFF7AEFCFEE7C04601000000945101004C
:400A000008B50F4A136801218B43136000230AE0032B03D89A000B49505800E00A4899000A4A885001332F2BF2D9FFF793FB0022074B1A60024A116801230B43136008BDE5
:400A40000000104000000000B509000000000020C0000020F0B50025002711E0BB00C658F3B2FF22964308E06A008A181478A419527822700135013BDBB2002BF4D101374E
:400A8000092FEBD9F0BDC04608B50A1C002101F0DFFC08BD064B1B68002803D080221206134301E05B005B08014A13607047C04680033A4008B50323094A1360094A13608D
:400AC00080221206084B1A602223084A1360084A13600022074B1A600120FFF7DBFF08BD300030403000314000003A4000033A4040033A40000E3F4004490A68BF231A407F
:400B000080017F3B184010430860704700020440024B18684006C00F7047C0460402044008B500F07DFA08BD10B50024064B1C70064B1C70064B1C70FFF7F2FF054B1C7055
:400B4000054B1C7010BDC046DB240020D4240020DA240020BC240020C424002010B590B0041C0BA82249142201F069FC2023214AD35C002B05D1FFF7D7FF012120231D4A24
:400B8000D154002C30D01C4B1C6008AC05AA099206AB089302212181193119805980173919710823137001F087FC201C1621694401F062FD002818D1052300930F4B019310
:400BC0000F4B02930F481049D82212010BAB01F0AFFC002809D101220C4B1A700C48272113320FF021F900E0012010B010BDC046884D010064130020C0240020005D010094
:400C0000790200006D0D0000C8000020D22400209C4D010008B502282ED81B4B1B78042B2CD11A4B1B785B072BD4002809D1184B00221A862032596A0A805B6A10325A80C5
:400C40000CE001280AD1124B96221A86C822D200596A0A805B6A8022D2015A800D4B18700B4820300DF00AFA00280CD1074A117804230B43137006E0012004E00420FF3019
:400C800001E00420FF3008BDD2240020DB240020540E0020DA2400207047C04603784078000218437047C04638B583890D2B20D1041C04300021221C33330FF0CDF8051E3A
:400CC00011D16068FFF7EAFF830706D50A4B1B6882204000211C984705E0074B1B680620FF30211C9847054A137801218B43137000E00025281C38BDC0240020DB24002057
:400D0000024B00225A701A707047C046D824002010B582B0041CFFF7C7FF0A4B1B78DB070ED4002809D001A912238B70A3890B80C87020680EF0C4FA02E020680EF054FBD3
:400D400002B010BDDB2400208379002B07D000200BE0C25C002A07D10133DBB200E00023052BF6D9002000E001207047F0B583B0041C0D1C964A117801230B431370272843
:400D800000D1B8E012D8062800D182E004D8012824D0052879D009E1242800D1A3E0262800D1B0E0212800D000E186E0422800D1E8E009D8312800D199E0412800D1CAE00C
:400DC000282800D0F2E09AE04C2800D1E5E0FA2800D1E6E0432800D0E8E0D6E001AE0727377000237370301C03F008FB377001237370301C03F002FB764B1E68301CFFF7CC
:400E0000A3FF00280CD0301C01F064FB714E30680021FFF741FF30680121FFF73DFF25E06D4B1B786D4A12783F210A4092010B4013436B4A127820390A4012031343694A67
:400E4000127860310A4052041343674E33701A0A72701B0CB370301C01F03CFB301C0021FFF71AFF301C0121FFF716FF00200CF0B5FF01A85D49022201F0E1FA01A80CF09C
:400E8000CBFF04225A4B1A7090E02A78594B1A708CE02B78002B00D088E06B78002B06D1554B0022DA809A80544A1A606B60484A137801218B43137078E0454B1B789B06B7
:400EC00074D44F4B1B78102B02D105224C4BDA704C4B18784A490DF091F83D4A117801230B43137062E06A78474B1A705EE002223F4B1A705AE002223D4B1A7056E00422A0
:400F00003B4B1A7052E03A4B1B78022B4ED0304A1278D2074AD52E4A1278520708D50322334B1A702A4A137804218B4313703DE0274A1278120708D504222D4B1A70244A92
:400F4000137808218B43137030E0032B2ED10422274B1A702AE02B4E301C291C022201F06EFA0022234B1A7033789900CB185B002649C918264B9C46614426480A3201F0FD
:400F80005EFA13E0FFF7BCFE10E06988162900D9172128880EF09EF908E0281CFFF7B8FE04E01D4A117801230B431370084B1A7811231A4209D0064A137801218B43137083
:400FC000164B1B68201C291C984703B0F0BDC046DB240020880E00207CF2FF0F7DF2FF0F7BF2FF0F78F2FF0F8C0E002030510100D2240020D424002088130020480E0020EB
:401000002C100020D8240020C4240020005D010079020000C8240020BC240020C02400207047C046024A117880230B431370704773000F40024A11787F230B4013707047CC
:4010400073000F40014B18807047C04604100F40014B18807047C04684100F40014B18807047C04644100F40014B18707047C04683000F40014B1878C0B2704763000F40C8
:40108000014B188880B27047A4100F4008B501E0FFF7F6FFFFF7EEFFC306F9D408BDC04638B515490B783F229343363A13430B7012490A7801231A43D2B20A70104C2278F3
:4010C0001343DBB223700F4D281CFFF7BBFF281CFFF7BEFFFA20C001FFF7C0FF0020FFF7C3FF00F02AF8227810231343237000F028F8FFF7CBFF38BD73000F4092000F409B
:4011000093000F40FFFF000008B5064B1B78002B04D1FFF7C5FF0122024B1A70FFF782FF08BDC046901300200230800803D00138FDD1C046C046C0467047EFF3108072B67E
:40114000704780F310887047024B1B68012018407047C0460C002E401F2318401E3B8340181C014B1860704700E100E001BE704738B5041C0D1C1F2802D90020FFF7F6FF77
:40118000A400034B9C4664442068256038BDC0464000002070B5041C0E1E032E02D90020FFF7E4FF1F2C02D90020FFF7DFFF03252540ED000635FFF7C0FFA408A400074BAF
:4011C0009C46644423680322AA409343AE40351C1D432560FFF7B5FF70BDC04600E400E010B5041C06E0084B1868FFF79DFF074B9C46644480231B029C42F4D8024B5868AD
:401200006043FFF791FF10BD341000200080FFFF08B5034B1B7A5843FFF786FF08BDC04634100020F0B557464E46C0B483B0041CFFF783FF0190E71E2D2F74D83F4B1B7881
:40124000DBB2A34208D33E4B1B78DBB29A463D4B1B78DBB2994631E03B4B1B78DBB2A34208D33A4B1B78DBB29A46394B1B78DBB2994623E0374B1B78DBB2A34208D3364BAC
:401280001B78DBB29A46354B1B78DBB2994615E0334B1B78DBB2A34208D3324B1B78DBB29A46314B1B78DBB2994607E02F4B1B78DBB29A462E4B1B78DBB299462D4BDE5DD8
:4012C0002F2E09D92A2C07D919222B4B1A600520FFF72AFF192503E0274B1D683F231D40AE4206D2234BDA5D234B1A600520FFF71BFF1F4B9C4664442378DBB21F4A1360B1
:401300001F4B52461A601F4B4A461A600520FFF77FFFAE420AD9174BDA5D174B1A600520FFF702FF02E00020FFF720FF0198FFF708FF03B00CBC91469A46F0BD40F3FF0FF3
:4013400041F3FF0F42F3FF0F43F3FF0F44F3FF0F45F3FF0F46F3FF0F47F3FF0F48F3FF0F49F3FF0F4AF3FF0F4BF3FF0F4CF3FF0F4DF3FF0F345101002CFF0B4028FF0B4057
:401380001CFF0B4020FF0B4010B5041C0F4A116801230B4313600E4A0E4B1A600E4A1368802109020B431360002809D100200CE00120FFF72DFFFFF7C7FE002804D1013C10
:4013C000002CF5D1102000E0002010BD60F02E400220000078002E4010002E40034B1868C0231B02184000D00120704700010B4010B50D4B1A6801218A431A601A680220F4
:4014000082431A60094A10683024A043203C204310601068093CA043014311601A68802109060A431A6010BD00F02E4000FF2E4038B51D4B1B6801241C40002802D00128DA
:4014400016D02BE0184B19680122914319601968022081431960154B19682E3081432038014319601968093881430A431A6018E00D4B1A6802218A431A600C4A10680725AC
:40148000A84301431160116830208143103801431160196801220A431A6002E00020FFF765FE201C38BDC04600F02E4000FF2E4008B5FFF742FE044A1368C02109020B4344
:4014C0001360FFF73EFE08BD00010B4010B5FFF734FE08490A68084B1A408024E40122430A600A6813408022120213430B60FFF728FE10BD00010B40FF3FFFFF70B5061C8D
:40150000FFF71BFE041CFFF769FF002803D0FFF7DDFF012500E000250848331C0340084A106808490840184310601368012D01D1FFF7BEFF201CFFF704FE70BD040404007B
:4015400010020B40FBFBFBFF10B5244B1B685B0715D5234B5B685B070ED5224B596A042001401F4C62688A4362605A6A82435A629B69002B00D098470420FFF7BFFF174BEF
:401580001B685B0518D5164B5B685B0510D5154B596A8022D2001140114842688A434260596A114A0A405A62DB69002B00D098478020C000FFF7A2FF084B1B685B030CD54A
:4015C000074B5B685B0304D5064B1B6A002B00D098478020C002FFF791FF10BD10020B404410002094130020FFFBFFFF04490A68BF231A4080017F3B1840104308607047AA
:4016000000030440024B18684006C00F7047C046040304400004000C014B18607047C046880120400004000C014B18607047C046940120400004000C014B18607047C046E8
:401640008C01204038B5041C0D1CFFF776FDAC40024B1C60FFF775FD38BDC0460800204008B5FFF76AFD064A116804230B431360FFF767FD04201821FFF7E4FF08BDC04638
:4016800000002040014B18607047C046B801204010B50D4C8023DB042360236823600020FFF7B8FF236823600C22084B1A600120FFF7E8FF3122064B1A602020FFF7B2FF26
:4016C0000020FFF7B7FF10BD80012040A4012040A801204008B5064B1B78002B04D1FFF7D7FF0122024B1A70FFF7BAFF08BDC046BC1300200004000C014B18607047C04601
:40170000080120400004000C014B18607047C046140120400004000C014B18607047C0460C01204038B5041C0D1CFFF706FDAC40024B1C60FFF705FD38BDC04608002040FD
:4017400008B5FFF7FAFC064A116801230B431360FFF7F7FC01201821FFF7E4FF08BDC04600002040014B18607047C0463801204010B50D4C8023DB04236023682360002060
:40178000FFF7B8FF236823600C22084B1A600120FFF7E8FF3122064B1A602020FFF7B2FF0020FFF7B7FF10BD00012040240120402801204008B5064B1B78002B04D1FFF7D1
:4017C000D7FF0122024B1A70FFF7BAFF08BDC046BD130020014B18707047C04671000F40014B18707047C04672000F4010B50F200321FFF7CFFC0F204349FFF7B9FC0322A8
:40180000424B1A60424B1B68002B01DA414900E04149424A13680B431360414A414B1A60414A424B1A600023414A1360414A42490A6042490A60424A1168802040020143EB
:40184000116040490A6802430A603F4A13603F4A136001223E4B1A603E4A11683E4B0B40802189050B431360002249E03B4891000C58DC239B0123408018007A03433848D1
:40188000844661440B60E30708D52F480468802149020B1C93401B0C2343036093002F495B589B0708D529480468802149020B1C93401B0C234303609300284959588B0599
:4018C00002D58020400001E080204001CB0504D45300002423495C5203E05300002421495C52214B43438021C9008C466344D917490DCB18DB121BB290001C494350013251
:40190000012AB3D910BDC046011A000020003A4080033A40C0201010C020001000003A408C00008004003A400000FF0718003A401C003A400400040010003A4014003A4029
:4019400000033A4040033A4028023A4038023A4018023A4030003A40FEFFFFDF6451010080003A40DC24002010270000E024002008B5094B1B68002B0CDB084B1B68002BEA
:40198000FBDB054A1368802109060B4313600A20FFF73EFC08BDC04600003A4008023A4008B5064B1B78002B04D1FFF71FFF0122024B1A70FFF7DCFF08BDC046BE130020B7
:4019C000034A1368802149020B4313607047C04604003A4010B5041E012C02D90020FFF7C5FB012C07D8A400044B9C46644420680004000C00E0002000B210BD80013A40D7
:401A0000014B1A681A60704710023A4008B5FFF794FB044A116802230B431360FFF791FB08BDC046000020400004000C014B18607047C04648012040024B18680004000C68
:401A40007047C046480120400004000C014B18607047C04654012040014B18607047C0467801204008B581229204074B1A604D22064B1A600220FFF7EFFF0548FFF7E4FF38
:401A80000020FFF7D1FF08BD4001204064012040FFFF000008B5064B1B78002B04D1FFF7E1FF0122024B1A70FFF7B0FF08BDC046BF130020014B18607047C04670012040F2
:401AC00010B50B4C23686022934323602368513A93432360226810231843104320600120FFF796FB236810229343236010BDC0460001044038B5051C0E4C226820231343A9
:401B0000236023684022934323600020FFF780FB23680F2293432360236810202843184320600120FFF774FB236810229343236038BDC04600010440F8B5274A13687F2120
:401B40008B43136025490B681B0B1B03244803430B60136820218B431360116840230B431360CA277F000020FFF752FB1A4C23681026334323600120FFF74AFB194B1D6810
:401B80002368B34323600020FFF742FB08231D402368334323600120FFF73AFB2368B3432360002D02D10A20FFF732FB013F002D01D0002FD7D1084B1A6840218A431A6093
:401BC0001A683F318A431A60044A13681B0B1B0305490B431360F8BD00010440080104404902000004010440B60D000010B5041CFFF7A2FF2009FFF77DFF0F202040FFF756
:401C000079FF10BD38B5051C0078012404E0FFF7EDFF285D0134E4B20028F8D138BDC04610B5041CFFF788FF2009FFF749FF0F202040FFF745FF10BD08B52820FFF7D0FA8E
:401C40000320FFF73DFF0520FFF7CAFA0320FFF737FF0F20FFF7C4FA0320FFF731FF0120FFF7BEFA0220FFF72BFF0520FFF7B8FA0620FFF7D5FF0E20FFF7D2FF2C20FFF7B0
:401C8000CFFF0820FFF7CCFF0120FFF7C9FF0C20FFF7C6FF0320FFF7C3FF0520FFF7A0FA08BDC04608B50C20FFF7BAFF0122014B1A7008BDC013002008B5064B5B78002BF7
:401CC00004D1FFF7B9FF0122024B5A70FFF7EAFF08BDC046C0130020024A117880230B431370704770000F40024A11787F230B401370704770000F40014B18707047C0467F
:401D000081000F40014B1878C0B2704761000F40014B18807047C04640100F40014B188880B2704780100F40014B18807047C04600100F4008B501E0FFF7F0FFFFF7E2FFD0
:401D40000307F9D408BDC04610B50B4C201CFFF7DFFF201CFFF7E8FFFFF7EFF9074A117810230B431370FFF7ECF9FFF7E3FF0120FFF7C2FF10BDC046E703000091000F4098
:401D800008B5064B1B78002B04D1FFF7DDFF0122024B1A70FFF7A0FF08BDC046C21300208823014AD05070470000002010B5041CFFF7C3F9044A1168044B0B40A4051C4374
:401DC0001460FFF7BEF910BD10E400E0FFFF3FFF8022D202014B1A607047C04600E100E08022D202014B1A607047C04680E100E010B5041CFFF7F4FF201CFFF7D1FF0320FE
:401E0000FFF7D4FFFFF7E4FF10BDC04604490A68F7231A40C000EF3B184010430860704700030440014B58647047C0460000002010B5041CFFF781F9044A1168044B0B4064
:401E4000A4031C431460FFF77CF910BD00E400E0FF3FFFFF0222014B1A60704700E100E00222014B1A60704780E100E010B5041CFFF7F6FF201CFFF7D5FF0320FFF7D8FFA6
:401E8000FFF7E8FF10BDC0460160704701607047324B1A781202324B1B781A43314B1B781B02314909780B4330498B4201D1072A06D0D42109018B4206D1042A04D102E096
:401EC0002B4B042200E02A4B2A490B602A4B1A602A4B1B781B022A4A1278134380229201934202D0002B02D002E0264B00E0254B254A1360254B1B781B02254A12781343DE
:401F0000244A934205D0244A934204D0052B05D103E0224B02E0214B00E0204B204A1360204B1B681B09204A1268AA2A15D1012B13D9164B1B780E2B0FD11C4B1B781B02BA
:401F40001B4A127813431B4A13601B4B1B781B021A4A127813431A4A1360704759F1FF0F58F1FF0F5FF1FF0F5EF1FF0F580B0000580D00006C002E4074002E405BF1FF0F14
:401F80005AF1FF0F0220000078002E405DF1FF0F5CF1FF0F0F0F000005050000050F000080002E40EC0F00F0E00F00F06DF2FF0F6CF2FF0F84002E406FF2FF0F6EF2FF0F6D
:401FC00094002E4008B5FFF723F908BD08B500F04FF808BD08B500F053F808BD08B500F04FF8034800F02EF8032000F031F808BDC920000008B5024800F04AF808BDC04692
:40200000C920000000487047020200002B2070472B2070472B2070472B2070472B2070472B2070472B2070472B2070472B2070472B2070472B2070477047C0460120704709
:4020400001207047014B18677047C0460000002010B5041CFFF771F8044A1368C0218B43A4011C431460FFF76CF810BD0CE400E080225201014B1A607047C04600E100E07C
:4020800080225201014B1A607047C04680E100E010B5041CFFF7F4FF201CFFF7D3FF0320FFF7D6FFFFF7E4FF10BDC04608B5FFF744F8044A136804218B43136030BFFFF7F8
:4020C00040F808BD10ED00E008B512F025FD08BD002243088B4274D303098B425FD3030A8B4244D3030B8B4228D3030C8B420DD3FF22090212BA030C8B4202D31212090279
:4021000065D0030B8B4219D300E0090AC30B8B4201D3CB03C01A5241830B8B4201D38B03C01A5241430B8B4201D34B03C01A5241030B8B4201D30B03C01A5241C30A8B426E
:4021400001D3CB02C01A5241830A8B4201D38B02C01A5241430A8B4201D34B02C01A5241030A8B4201D30B02C01A5241CDD2C3098B4201D3CB01C01A524183098B4201D3E7
:402180008B01C01A524143098B4201D34B01C01A524103098B4201D30B01C01A5241C3088B4201D3CB00C01A524183088B4201D38B00C01A524143088B4201D34B00C01A81
:4021C0005241411A00D20146524110467047FFE701B5002000F0FCF802BDC0460029F7D003B5FFF775FF0EBC4243891A1847C04603460B437FD4002243088B4274D30309F3
:402200008B425FD3030A8B4244D3030B8B4228D3030C8B420DD3FF22090212BA030C8B4202D31212090265D0030B8B4219D300E0090AC30B8B4201D3CB03C01A5241830B1D
:402240008B4201D38B03C01A5241430B8B4201D34B03C01A5241030B8B4201D30B03C01A5241C30A8B4201D3CB02C01A5241830A8B4201D38B02C01A5241430A8B4201D330
:402280004B02C01A5241030A8B4201D30B02C01A5241CDD2C3098B4201D3CB01C01A524183098B4201D38B01C01A524143098B4201D34B01C01A524103098B4201D30B0172
:4022C000C01A5241C3088B4201D3CB00C01A524183088B4201D38B00C01A524143088B4201D34B00C01A5241411A00D201465241104670475DE0CA0F00D04942031000D39A
:402300004042534000229C4603098B422DD3030A8B4212D3FC22890112BA030A8B420CD3890192118B4208D3890192118B4204D389013AD0921100E08909C3098B4201D303
:40234000CB01C01A524183098B4201D38B01C01A524143098B4201D34B01C01A524103098B4201D30B01C01A5241C3088B4201D3CB00C01A524183088B4201D38B00C01AFD
:402380005241D9D243088B4201D34B00C01A5241411A00D20146634652415B10104601D34042002B00D54942704763465B1000D3404201B5002000F00BF802BD0029F8D050
:4023C00003B5FFF715FF0EBC4243891A1847C0467047C0460E4B70B500251E1C0D4CE41AA410A54204D0AB00F35898470135F8E712F0BEFE084B00251E1C084CE41AA41004
:40240000A54204D0AB00F35898470135F8E770BD7C5101007C5101007C5101008451010030B50024944208D0035D651C0C5DA34201D0181B02E02C1CF4E7002030BD00236B
:4024400010B5934203D0CC5CC4540133F9E710BD031C8218934202D019700133FAE77047134A1088810703D08107890F401A001D11791030484381B25088820703D08207ED
:40248000920F801A001D800040180A494030098980B2CA0701D0503080B2890706D504495422091F09785143081880B27047000052100020C413002010B501F06DFF0BF007
:4024C000F3FA10BD10B501F0ABFE10BD10B500F04FFA10BD10B50749044609780220002907D1204601F0F8FE002802D120460BF06BFD10BDBC11002070B504460120002CA1
:4025000012D02368002B0FD0616800290CD0074D06222889208118462968FFF790FF6968606809780170002070BD0000C4130020FFB585B0002768460E9D07734C481C466C
:402540000078002802D0082009B0F0BD10990F9801900095029105A807C800F0FBF80028F2D16946264603AB84460873002C19D0002115E08A00B75A082F09D9901980787A
:40258000002805D0083FB7521878401C187005E0002915D00027B75290198770491CC9B2A942E7D360460028CED10F9800280AD0109901F0E9F90006000E04D00120C3E7CD
:4025C00001208446EEE701F02BFE2948002101610C300599016021888180022D03D3A1798171A17AC17100211EE0481C19E082008B00A75AE65ABE46BE4211D26F463E80A6
:40260000B4461E190296B678BE7001967646E6521719029EBB78B3706646A652019EBE70401CA842E3D3491CA942DED3114800906846037B22460799069800F013F9002877
:4026400082D168460A4C007B60700A4801F024FE0028B4D1204607490C3008F07BFC0028ADD108F095FC0028A9D1012121706BE74C100020C4130020F8B5054633480E4635
:402680000078002802D002242046F8BD002E5BD000242F49002D16D02A89D0070DD02868002808D003881B3BE12B04D24088FB2801D81B2801D2012409E0900707D568687A
:4026C000002804D1F7E70020088108604860002CDAD11F482F8907811C481B21801D018041800421017119490020891C0870F80705D016480622801D2968FFF7A0FE14499A
:40270000B80703D56A681148127882700F480D46801D0860001F486001F004FE0B48801D01F0F2FD28890EF045FC28890EF0ACFD03461033FFF794FE1F21C01889014018CC
:402740000249308088809FE701249DE74C100020C4130020FFB58446384F1C460020BB883F78054602460646002F11D100290ED0029999420BD36146002908D0002C06D03E
:402780000A99002906D02E4B0B99994202D2012004B0F0BD002144E0AB001F19BF78002F3BD0E35A002B38D07B43591889B22B0000F04AF8050410161C253100A7782388EE
:4027C000BC46FF27233BEB37BB4222D26346032B1FD322E0A388002B1FD0302B19D31CE02389002B19D0282B13D316E0A289002A13D01346134F233BBB420AD20DE0268A37
:40280000002A0AD033460F4F233BBB4201D2964203D901200EE0002001E000280AD16D1CEDB2099B9D42B7D31C2463435B1802998B42ACD89642AAD8AAE700004C100020E7
:4028400079020000BAFF000030B47446641E2578641CAB4200D21D46635D5B00E31830BC18470000FFB583B0002469460C801F4606468C80002806D00598002803D004982F
:402880003043800701D0012467E0002FFBD03449049809888842F6D3FFF7ACFBFFF79AFB00F010FC002856D100F06CFD002852D12C49084601F09CF805042D0C4BD12A487B
:4028C0000499066081800021C18007810C98007AC00704D0684601F0BCFC040007D10C98007A800703D501A801F0C8FC0446BF1DFEB2002C21D13146059800F05DF80400D2
:402900001BD10EF0CFFC0406240E16D16A461088928808368518144AF1B29088D288AEB29319984207D3401B801A80B201F050FB050007D000E0FF25012400F05BFA002D75
:4029400004D008E0F8B200F01BF9F6E700F07EFA06490120087000F0C7FB204607B0F0BD50100020A52A0000D01300206010002010B503480078012801D101F0CBF910BD5D
:402980006010002070B5084B0446DA889E8800205518B54206D81D68AA182260DA885118D98070BD032070BDD01300200148008970470000D0130020F0B587B007460D4666
:4029C00000208900009006916846FFF7DBFF844600285DD1304800990160002117E02E4B88001A680629115406D22C4C0419667882185670628805E0C419203CA67A82185B
:402A0000567022891B68C018491C4280C9B2A942E5D300242DE0601CC2B2059025E01E4FA30039689600581840887118039604904E88B04217D938466F46FE80B6464F7869
:402A40006E4677710297049F4F800168039F5E18767879184E700168764659184E800068029F18184770521CD2B2AA42D7D30598C4B2AC42CFD36046002809D1684606997D
:402A8000FFF780FF8446002802D1054900980860604607B0F0BD000064100020A8510100681000207047000010B5002809D005494A68002A05D0011F08788000105801F069
:402AC00035FA10BD6410002010B50446FFF76EFFC0B2801DA0420CD307484068002808D0A100405801F094F9002801D00470001D10BD002010BD000064100020F8B5164675
:402B00000D460446FFF752FFC0B2801DA04203D20020C0430090F8BDB2B2E9B2684601F09DF90099481C03D0024AA000526811500098F8BD64100020F8B50746FFF736FF72
:402B4000801DC6B20A49002005460C680DE06178002907D06188B94202D32078FFF7B4FF002804D1241D6D1CEDB2B542EFD3F8BD6410002010B5002801D0FFF795FF10BDD1
:402B800070B506460948002504680BE06178002905D062882078121D0023FFF7AFFF241D6D1CEDB2B542F1D370BD000064100020FFB581B00A9C16002BD000F0F1F80546E3
:402BC000042826D0214F002C0BD02046FFF7B4FF2901C919486000281BD022460499FFF72EFC1A4928010E5046187481019805707D20029CC000444300F0C0F80090042810
:402C00000AD000F055FAA0420ED800F051FA201A06E0FF2005B0F0BD204600F0ADFA0020B08135720020F5E700F042FA074600F0B9FA381B87B23846012100F0EFF800982F
:402C40000101024808188781E6E70000DC130020F8B5060117483418217A042903D0A089002802D018E00020F8BD00F021FA054600F098FA00F0A2F804280DD001010D4858
:402C80000F18B88941198DB2002100F0C7F80020B881284600F070FA6068064D002801D0FFF768FF042020720020A8516081A081D9E70000DC130020FEB500266A46304612
:402CC00001232549050169180D7A042D02D0898900291BD000211154401CC0B20428F0D300246846005D002830D01B4821010818418947680568029100210160416004220A
:402D0000418102728181002E02D015E01354E3E700F054F804280ED001010F480818019086890021304600F079F8019800218181304600F021FA0126002D07D0384602995D
:402D4000A847002F02D03846FFF714FF641CE4B2042CC6D3FEBD0000DC1300200EB5002005216A460090118150810348694600680FF00DF90EBD00006C100020074A002048
:402D8000010189180B7A042B02D08989002903D0401CC0B20428F3D370470000DC1300200549002002015218127A042A03D0401CC0B20428F6D37047DC13002030B50A4B2B
:402DC00004200A4C00210A011219157A042D06D09289002A03D09A4201D808461346491CC9B20429EFD330BDFFFF0000DC1300207047000030B50020074C054604230201AB
:402E000011190B72A5504D60401C4D81C0B28D810428F4D330BD0000DC13002030B5094C00231A011219157A042D04D09589002906D02D1895815B1CDBB2042BF1D330BD1D
:402E40002D1AF7E7DC130020002070471CB5002469460C70142001902346054A05480FF09BF804480068401C00D1FF2420461CBDC92E00006C1000203EB5124A0146FF2040
:402E800000230124126800290DD0012914D0042908D104206946009308814B8110460FF076F880B23EBD6846009304814381694610460FF067F8F4E7684600930481438139
:402EC0006946EBE76C10002070B545890468416800890300FFF7B8FC08280509091E22282628002006F066FD1EE0022908D0C8B22A4621460DF00EFA2046FFF73BFE13E022
:402F000002202A4621460DF005FA2946204600F00DF809E000200EF029FD05E02046FFF7CBFE01E0FFF788F8002070BD014B0022DB6818477010002070B54489056800895F
:402F4000022803D0032809D0FF2070BD2246094C0023A46829460120A04708E0FFF7B2FA241DA2B200232946022007F0A4FE002070BD000070100020704700000248002126
:402F800041600180418070477010002070B50C46002186B016460391012802D0022859D116E003A9012007F0E6FE01281BD1039D324621462846FFF742FA00952878019032
:402FC0000220694608814E816846FFF7B5FF41E0214D002B686809D0049004A9022007F0CAFE01281DD0022006B070BD002812D0298840182146FFF722FA288800248019B7
:4030000080B228806988091D884206D12C801348FFF792FF03E00320E6E788421AD96C6018E004986860E278A378110219430B4A698000231060E35653600323138151818B
:40304000A1788170E178C1706178417021780170042028800020C7E7701000201C1400203EB515460C46022803D004280CD000203EBD0091019002206946088107484A8148
:4030800000680EF084FF07E00DF044F9044B0022DB6829462046984701203EBD6C10002070100020014AD1609060704770100020034801688068081A0A214843000970474F
:4030C0002814002010B5FEF789FF482204490548FFF7B5F903490120C870002010BD0000C45101002C18002010B5FEF76FFF10BD70B5134C2368002B08D0207B1149C207B9
:4031000005D04008400020738868A08070BD88680B4AA18880B29268814203D90A4D691A091802E0814202D2411A5118A160A080A0689842EAD30EF047FF00F013F870BDC5
:4031400028140020C0102E40FFFF000010B508461946FFF7A7FF10BD704710B5FFF780FF10BD000003480021016041608160C1607047000028140020024610B5FF20002A45
:403180000CD0FFF7EFFF064C0321207B0843207310010A21FFF722F82060002010BD00002814002000B504480A21806848430209FFF7D8FF104600BD281400200248007BA0
:4031C0008007C00F704700002814002010B544490868002802DA434B01221A70022290430860414800693E49C00B4031096A08425ED0012000F086FA3B483C497C30FEF72C
:4032000045FE37480E216C30FEF740FE364820218430FEF73BFE344814219C30FEF736FE3148FF21C131A430FEF730FE2E48FF212F31B030FEF72AFE2B482D49BC30FEF748
:4032400025FE29482B49AC30FEF720FE29492648491CB430FEF71AFE23482749B830FEF715FE21482549CC30FEF710FE1E4824490830FEF70BFE1C482249A830FEF706FED7
:40328000194821498830FEF701FE17481F498C30FEF7FCFD14481921C9029030FEF7F6FDFEF7F6FDFEF7AEFEC0B2022802D00FE0FF2010BD16491748FEF7E8FD15481649F7
:4032C000001DFEF7E3FD134800210830FEF7DEFD54200449C043891C0870002010BD000000F02E408010002000002E4055650000320300002F3F000031020000105200001C
:40330000EC160000FA12000031D000003AE300009956000080012E40F80F000070B50646581C80B245086D00002408E0304600F0C1F81055000A1119A41C4870A4B2AC422B
:40334000F4D3D80705D0D0182038D15CC47FD454C17770BD30B50A4C002100195B1E07E0541864782502545C2C430480891C89B29942F5DB994201D1515C018030BD00005B
:4033800000102E4010B5FF2000F0BCF90F49FF2048700E481021801D41800121417001700A490020C91C4870FFF710FF04000AD100F008F907210648FEF766FD0448072187
:4033C0001830FEF761FD204610BD000080100020CC112E4070B5002405465B1E0AE0284600F068F8010A161971702D1D1055A41CADB2A4B29C42F2DB9C4203D1284600F055
:4034000059F8105570BD000070B500210A4D5B1E0AE0541864782602545C344346193480001D891C80B289B29942F2DB994202D1515C4019018070BD00102E40F0B5059905
:40344000091FCFB200217E1E0BE0541864782502545C2C43164D45192C80001D891C80B289B2B142F1DBFC0712D01C78515C24020F4A0C4381180C809C785D78001D2102D0
:4034800080B2294384182180001D80B2D9780CE059781A7809021143054A84182180001DD9789B78090280B2194380180180F0BD00102E40014940180088704700102E409A
:4034C00010B50B490020487000F07CF8002000F03FF9002000F02CF907210648FEF7D4FC044807211830FEF7CFFC002010BD000083100020CC112E4010B50B46062812D032
:4035000006DC01280CD0032801D1FFF7D9FF10BD0A28FCD00B28FAD105480078107010BDFFF730FF10BD1146184600F02DF910BD86100020F8B5204DAC6A0127A0071F4E52
:40354000002816DA307806280ED1286A384328621B480069F903084381B219481030FEF795FC042000F0CEF8134802212830FEF78BFCE00711D0062000F0C4F80F49FF203D
:40358000C91E48707078002802D1686B38436863094801212830FEF777FCE0050BD53078042802D1052000F0ADF80348FF2101312830FEF769FCF8BD40F02E4083100020C2
:4035C00000002E4010B503212348FEF75FFC0120FEF7F8FC20483038406A204C80076178800F890001431C480C38FEF74FFC6078002808D0401E022181401820FEF7DEFE02
:40360000C000083800E0B82081B21548FEF73EFC1348032109021438FEF738FC10481149B830FEF733FC612189010F48FEF72EFC0D480321001FFEF729FC0C490C48FEF784
:4036400025FC0B480B496038FEF720FC084801218838FEF71BFC10BD70F02E4086100020D8102E4090890000041E2E40FF0F000058122E40209000000849087806280BD1DA
:4036800048780749002803D1486B400840004863C86A01221043C862704700008310002040F02E4001480078704700008310002000B50300FFF7C8F8080D050D0B07050760
:4036C000090D012000BD032000BD042000BD022000BDFF2000BD0000074A9168D26889B2064B92B2994204D105498A4201D1012100E000210170704780002E4033D000002E
:403700003FE3000010B50446FEF764FC072C01D9FF2C01D102480470FEF758FC10BD00008310002001494870704700008010002010B5064A012805D01921C9021046FEF7A6
:40374000A5FB10BD1D21C902F8E7000090002E4010B50A4A141D012808D009491046FEF795FB08492046FEF791FB10BD04491046891CFEF78BFB0349491DF3E788002E4034
:4037800031D000003AE3000070B50C460546FEF739FCC0B202280E49287804D0FF2810D04C280CD810E0FF2809D10A4AD0680004800F032801D0087807E09069000A553836
:4037C00003E00878207070BD4F382070087070BD8210002000002E40F0B50122002830D000292ED00424420600D00524792342065B06D21800D0641C034600221EE00C2534
:4038000016466E43104D00277519AF720E4F002ABB51696007D0661EB24209D10B4E86197606760E05E05E06760E8027BE1B00E080269B198919521C2E81D2B2A242DED36C
:4038400000221046F0BD0000B416002079020000074900200C2242435218927A012A05D0401CC0B20628F5D30020704701207047B4160020F8B50F000446164609D0184D28
:4038800018496868A04202D94018A04201D38E4201D90120F8BD39462046FEF7C1FD00281BD0324639462046FEF7C9FDF0B200210C224A43521913895668F718A74208D9AD
:4038C0000127A41B1B1B9772834206DAC01A1469C0B2491CC9B20629EAD30020F8BD0000B41600207902000010B500F05DF80748054AC16806480C46FEF7A1FD0449204677
:40390000FFF76AFF10BD0000790200008C10002038140020002070470020054A002902D0012902D002E0506000E09060002070478C10002070B5084C154608460549A2680C
:4039400089182A46FEF77BFDA0684019A06028B270BD0000381400208C1000203EB50A226946FFF7E7FF044606480A2200686946FEF756FD002802D00020C0433EBD2046EE
:403980003EBD00008C100020002802D0044A914201D2FF20704703490A61C86000207047790200008C1000200248002141608160704700008C10002070B5074C154605481F
:4039C000626880182A46FFF755FF60684019606028B270BD381400208C10002010B503490A220968FFF7E8FF10BD00008C10002010B50F4A002313600E4A13600E4B186037
:403A00000E4801600E49012008600E490860000290600E490C4808600D4914300860FF381538506000F0BCF800F0CAF9002010BDB8100020A0100020CC100020D0100020FD
:403A4000BC100020AC100020FC170020B0100020C4100020014610B50020002910D0094B1A689C685118A14209D25868196080188A0704D08A07920F891A091D196010BDCA
:403A8000002010BDA0100020F8B50024164E671E321F3D463168136806E01422624310328A58521C1BD0641C9C42F6D36A1C14D02C461422544322460C3288500C21484363
:403AC000FFF7C8FF3168002808510AD031680020103408517068401C70602846F8BD2546E4E73846F8BD0000B0100020F3B50026F64381B000281BDB1E490968884217D868
:403B00000299002914D01B4F142204463F1D54432546396810354859401C09D0FEF75AFA38682F1F4159C359994203DBFEF74EFA3046FEBD214608310091465801590C2070
:403B4000704308180C220299FEF779FC0948761C001D0068C159B14200D100260549009A091D865008684159491C4151FEF72EFA0020FEBDAC100020002803DB0749096853
:403B8000884202D90020C043704704491422091D096850431030085870470000AC100020F0B500200D4A451E0346171F50600FE014260146714314680E1DA3510C46166869
:403BC000083433511668083435511468401C635039688842ECD30020F0BD0000B0100020F3B50026F64381B0002841DB2349096888423DD8029900293AD0204F142204466E
:403C00003F1D54432546396810354859401C2FD0FEF7E0F93868415900292BD0211D009146580C21005971430F46C1190C220298FEF705FC11480021001D0068761C00599A
:403C40000C34C0190160416081600C48001D00680159B14200D100260849009A091D865008684159491E4151FEF7B0F90020FEBD3046FEBDFEF7AAF9FAE70000AC10002042
:403C8000FEB504460D4600201E49089E0860471E009001900290002C11D0486885420ED2002A0CD0002E0AD0642E08D808460C3001681C2068430C18207A002801D0384614
:403CC000FEBD0120226020721846FFF7DDFE6060401C13D06681A6810A4827610C3067610179A94200D205710021684601810A462846029B00F040F82846FEBD002020725E
:403D0000DDE70000B810002038B50124009400F039F838BDFEB50027164EFF433D4600240EE01C20316860430818017A002906D04068FFF721FF002801D0254603E0641C6F
:403D40003079A042EDDA681C12D01C2130684D434419FEF73FF969466068FFF741FF0546FEF734F9002DD9D1216868468847D5E7FEBD0000C410002038B50024009400F0A5
:403D800001F838BD1FB500220C49541E0A60002811DB496888420ED808491C220C31096850430818406801A9FFF7A0FE401C02D0002004B010BD2046FBE70000B8100020A4
:403DC000F0B50021114A4D1E174611710C3F0B46BD6016E008461C2460431668041D355114680646235014680836A3551468361DA353044616680A34335318301468491CEC
:403E0000255078688142E5D30020F0BDC410002038B500210091002811DB0F49097888420DDA0D4D04010C3529680859002807D0201D0818694600F06FF9002801D00020A6
:403E400038BDFEF7C7F828680F34015D491E0155FEF7BCF8009838BDD4100020F7B582B0002502986E1E06602E48D21C024017462D4A2C4610460C380178106805E0230162
:403E8000C358002B0FD0641CE4B28C42F7D3711C28D03401211D40180191039900F02AF900281FD101E02646F1E71F48016820460C300F521C480399026820460E3011541B
:403EC00019480399026820460F3011540398784300F0A0F8144900280968085102D00024009011E001251AE00F48016801980818009900F02CF9002801D0012502E00098CD
:403F0000C0190090641CE4B203988442ECD3002D05D10298066004480179491C0171284605B0F0BDFCFF0000E0100020F8B50D4600216A468C461180002839DB234909780A
:403F4000884235DA214B04010C3319680A59002A2ED020460C300B5A801C0E5C184670438018954224D3854222D2002006E007465F43BF18AF4206D0401CC0B2B042F6D351
:403F80006046002814D0114E271DC8190C366A46294600F006F900280AD168460088012808D030682946C01900F0D1F8002803D00120F8BD0020F8BDFEF70CF830680F342E
:403FC000015D491C0155FEF701F8F3E7D4100020F8B50F46002400F031F8002817D10C4900220B460C334A600EE021011D680E466A501D680C36AA53B61C1D680F31AA55DF
:404000001D68641C6A54E4B2BC42EED31A71F8BDD410002000280BD0C01C074A81085068890053884118994203D89368516018187047002070470000D4100020F8B50646D9
:4040400000200F4D009029700C0121466846FEF799FC00280CD129460C3100980860301B001F84B221466846FEF78CFC002801D0FF20F8BD6C800098A8600020F8BD0000DE
:40408000D4100020F8B5002827DB19490978884223DA174C05010C342168485900281CD028460C30085A009028460E300E5C401C0E5420682F1DC01900F064F800280CD126
:4040C0002068002445590EE0094829460C300068C01900F03CF8002801D00120F8BD00982D18641CE4B2B442EED30020F8BD0000D410002030B50D4604000BD0A800FFF720
:4041000089FF6060002805D000202570C0436080002030BD012030BD70B50D46040005D0002D03D00220205E002801DA012070BDFDF750FF0221615E6068890040582860AF
:404140006088401E6080FDF741FF002070BD70B50D46040007D0002D05D002212078615E401E814201DB012070BDFDF733FF6088401C00B26080616880000D50FDF726FFC3
:40418000002070BD10B5040009D0227800216068FEF75EF90020C0436080002010BD012010BDF0B500231D46002802D00224045F0AE00120F0BD46689F00F6598E4201D1BF
:4041C000012503E05B1CDBB29C42F4DA15700020F0BD00000148007870470000E81000207CB505460024FEF76DF9A8796946087000A8062229460130FEF721F90021684693
:4042000005F0BEFE0C2804D0072804D01F2804D004E0022402E0042400E0272420467CBD10B500F073F9FFF73DFAFFF741FA10BD70B504460025FEF745F9002C06D0A0799B
:40424000012803D8214602F007FC00E00125284670BD01460120002902D05020088000207047000001460120002903D0024800780870002070470000EA1000200146012014
:40428000002905D003485422007850430880002070470000EA10002010B502460D49FE204870032410460EF095F9002810D10EF039F900280CD106F0BBFD002808D100F09C
:4042C00015FB002804D106F0DFF8002800D10024204610BDE810002070B50025044600280ED0A07901280BD8FEF7ECF8A0790028204602D002F0ACFF03E002F081FF00E099
:404300000125284670BD0000014610B50120002904D006220248FEF792F8002010BD0000EC10002001460120002903D0087802490870002070470000EA100020F0B589B022
:4043400015460F4606460124FEF7BCF8002E20D0002F1ED0002D1CD0102239466846FEF76EF81022314604A8FEF769F8102168460EF052F8102104A80EF04EF82B461022CF
:4043800004A9684603F0A6FF102128460EF044F80024204609B0F0BD10B505F071FD04F08BF806F0BDFB10BD38B504460120002C20D0617801291DD800290BD0FF25E53579
:4043C000FEF780F80C4828180088C0B22070072803D00EE0FF25CD35F2E70020694608706846FFF779F969460878012801D108202070002038BD000000102E40F8B504467A
:404400000120002C26D06178012902D92278092A20D8002905D0FF25E5352078092803D004E0FF25CD35F8E708202070FEF74AF82078114F114E08280DD00020FFF788F9EB
:4044400070780128207810D00D4969180880FE2070700020F8BD0120FFF77AF90720B8810549203188800120F2E7B8810248217820308180EBE70000C0112E40E810002060
:4044800000102E4070B50E46050001D0002400E00C4C002C11D0E28A500609D5D107C90F022002F0D1FFE08A40218843E08204E0D107C90F012002F0C7FF3146284602F056
:4044C00037FC70BD94180020F8B50546002004460D4E009013E022466946284600F01EFF0098002801D00EF057F8A878214602F003FAA878214602F0F1F9641CE4B2308A37
:40450000A042E8D8F8BD00004C19002038B51E4CFFF7C8F8042813D0052811D0062812D003282AD007280AD100206946087002460120FEF7E1FFFFF7B5F80128FBD138BD24
:4045400000F048FB38BD02F045FA00F043FB02F0A5FA8007800F0228F4D10C4841880029F0D05B21095D0029ECD101210170A07D0140022002F068FF38BD02F02FFA0120B3
:40458000FFF7C0F838BD000094180020F8100020F8B50646002402F0D5FF0546304602F0EBFF03460A480021068A0DE001228A401046174628401F40002803D0002F01D148
:4045C000224394B2491CC9B28E42EFD82046F8BD4C1900201CB50020694648706846FFF7E3FE01AA69460A20FEF786FF6946042008561CBD10B50C4601F062FA002809D0AF
:404600000179002906D0C1788078224602F016FC002010BD022010BD01480078704700006C1800204030C07E002800D00120704700B500F001F800BD8C2148430749084AB9
:4046400040186030417F491CC9B24177D289914201D300214177C8B270470000741800204C19002013B501F02BFA04000BD001F0C8FD002807D0214601AA0A310620FEF7E3
:404680003BFF00201CBD02201CBD000010B50C4601F016FA00280AD001F0B3FD002806D0224604490A20FEF727FF002010BD022010BD000055180020F3B581B00746014643
:4046C0000026029802F036FF0446002F01D0002500E0154D002D21D0284601F027FA032C04D13946029802F081FF06463846029902F0F4F8032C06D0002C10D00121384601
:4047000001F01AFB03E03146384603F06BF9284601F0A0FF0221284601F0B6FFFEBD3846029902F0DBF8FEBD9418002010B5044603F0A2FD002801D00C2010BD2078611C47
:4047400002F08EFCFF2801D01F2010BD02F0D4FCFF280AD02178621C02F04EF8044821780068026B601C904710BD072010BD00001011002010B503F07FFD002801D00C203F
:4047800010BD02F04FFC03480068C06A8047002010BD00001011002070B50D46044610210DF03AFE1021601806460DF035FE334610221946204603F08DFD102130460DF03F
:4047C0002BFE02202870204605F0B6FD70BD0000F8B504464078217802028006870FE0781143A67809050002090D0643084601F067F900210546F2B2002812D0002C10D035
:40480000022F0ED0032F0CD0002A0AD00279092A07D0002A05D0134A5A23527E1B5C9A4207D82889002105F0BCFC20460DF0B4FEFF21002914D10C482246006829464369F6
:4048400030469847C0B2FF280AD128464030817EF2B2491C8176FF232146284600F0DDF8F8BD00002C180020281100200020704710B5044603F000FD002801D00C2010BD9C
:404880002078611C02F0ECFBFF2808D002F024FB044821780068426B601C904710BD1F2010BD00001011002010B505F0EDFD00F057F9002010BD10B5044600786178E27808
:4048C0000843A17811430843217908436179084305D003F0C3FC002803D00C2010BD122010BD204602F0B4FC002010BD10B5FDF789FB02F049FE044803F02AFD02F0F6FA7E
:40490000012000F003F810BD3C180020F1B586B003A8009005A8019025489F22817A114081726846FDF7E8FD00283FD169460989C90705D01F4806990068C26868469047A6
:4049400069460989890706D500282FD11A480068816A06988847002828D1184E0025757075737571F575357675767575B570F570B5713746F5730120BC3738731F20F880ED
:40498000FF2130467972A0300175457500F056FA00242046069901F0DFFB002803D1641C2406240EF5D0FD72BD72B57307B0F0BD2C180020281100201011002074180020D1
:4049C00070B505460E46084602F0BCFD0446304602F0D2FD0121A9400A46224001400A4301D0012070BD002070BD10B50446084602F0C2FD0121A140014201D0012010BDAF
:404A0000002010BD10B5FEF74DFE032804D101F0E5FF0120FEF776FE10BDFEB51C4616460F46054601F016FEA878FFF701FE02460190334639460094284600F00DF800283D
:404A400008D1A8780199FFF71DFDFF2C02D138460DF0A2FDFEBD0000FFB585B005460E980C46FF2810D02B49C00009680A5840180179C0795278814201D9012601E0900676
:404A8000860F6846038108E06078A1788006860FE0780002014368460181284601F0BCFB070007D021462846079A00F0CBFB384609B0F0BD304600F079FC04AE0346039000
:404AC00002AA29460096204600F005FB3C20405D002818D0284601F09FFB012813D0684600890096C0B20190A878231DFF22079902F0D2F868460089039BC2B2A8780799EB
:404B000002F074FCD3E7684600890021C0B20091E9E7000024110020F8B5104F002500242846FFF735FD060012D00EE03046E040C007C00F07D02146284601F0C7FE214623
:404B40002846FFF7B9FD641CE4B2388AA042EDD86D1C2D062D0EE2D0F8BD00004C19002010B502F0C3F90020FFF7D0FE0DF0AAFD002010BDF8B5002400F094F80123012837
:404B800000D10124104F00203E4620360425082203E0002801D0002100E031460979002907D001290BD002290BD0114681402143CCB2401C0006000EEBD07C70F8BD1C434D
:404BC000F7E72C43F5E700007418002010B5FFF7D1FF10BD10B5FCF7B0FA0446FEF762FD012809D0FEF75EFD022805D0FDF75EFA2046FCF7A6FAEEE72046FCF7A2FA10BD5B
:404C000010B50B4681791943817103D08078114602F088FB10BD10B582798A43827102D1807802F093FB10BD30B50C4C0220A28A0B4B9978002901D0022906D11D785B78C4
:404C4000EB18282B01D9032002E0032900D101205105490DC0020143A18230BDC0112E40F310002000B500F023F8002807D0012805D0032801D0042801D0002000BD012009
:404C800000BD014600B50020C90701D000F00AF800BD014600B50020C90701D000F002F800BD000001480088000A704720102E400448008B410501D5042070474007800F93
:404CC0007047000000102E4038B50446000610D5FFF7EEFF01280CD1684601F085FE6846007800F0B3FA012001F01CFD0220FFF76DFF0348006801692046884738BD000099
:404D00001011002010B5034A0178117002F00CFA002010BDF310002070B50446FFF7C2FF002801D00C2070BDA27B01211F48002A827801D00A4301E0520852008270627964
:404D4000012A14D0C17849084900C170184D2868016820468847207901280CD06188208803F0BAF82080207904280FD015E0C2780A43C270EAE72868C168E01D8847E01D74
:404D800002F052FA0B48808C208006E02868C168E01D8847E01D02F047FA074920798870204602F0CFF9002070BD000074180020101100202C180020F310002008B5017823
:404DC000FFF770FF814201D10C2008BD002914D0072069460870FFF745FF012807D10121684600F08BF8012801D0092008BDFFF71BFF02F0DBF9012011E0FFF733FF0128CE
:404E000006D1684601F0F0FD6846007800F052FA02F0C2F9FFF746FF0028FBD10220FFF7D5FE002008BD000010B5034A0178517002F058FA002010BDF310002038B56846C6
:404E40000DF040FB002801D01F2038BD01210098C90201804180002505714571857107214173857302F06EF9009C202200212046FDF7EEFA25702A460021601CFDF7E8FAD9
:404E8000204602F051F9204602F02CFA00980DF083FB042200210248FDF7DAFA002038BDF31000200346084800B5834209D8184600F006FE002804D00089984201D1012096
:404EC00000BD002000BD0000FF0E0000074A9179491C8906890E917138220A4092014907090E1143084302490840704774180020FF0E0000C006C00E70470000F8B507469E
:404F00000E4600240D4803E0002C01D0002500E005462979002905D0641C2406240EF3D00020F8BD0021204601F016F92E712046FFF7CCFF28813C700120F8BD941800201C
:404F400010B503F0FBF90222002100F003F801F069FF10BD10B5094B40074907000F090F185A595A40185043C0086421FDF736F9002800D1012080B210BD00000C52010060
:404F8000F7B53D20405C88B015460C46002802D02878042802D200200BB0F0BD6946087200262046FFF73EFB012800D00126204603A938300191009023460327A17E34338C
:404FC0003246206A03F0DEF902A8089900900B46019120463A4603A9243003F05BF902466846007A2870204601F0A2F81046D3E7FFB587B00C4605461078694608723D205B
:40500000005D1746002826D000262046FFF70AFB012800D00126204603A93830019100902346A17E34333246206A03F0ABF902A80090291D019120462B1D03A924300A9A69
:4050400003F028F902006846007A388002D1204601F06EF810460BB0F0BDF0B505463C20405C89B016460C4600280CD0307869460873002806D000272046FFF7D3FA0128D0
:4050800003D003E01F2009B0F0BD012703200890204604A93830019100902346E17E34333A46E06903F06EF96846007B03A928180290009120462B46019504A92430089A7B
:4050C00003F01CF902466846007B3070204601F039F81046D7E7FFB505463C20405C89B016460C46002810D0084601F095F801280BD0308869468883002809D00027204645
:40510000FFF790FA012805D005E000200DB0F0BD0220FBE70127204603A93830019100902346E17E34333A46E06903F02BF9291D2B1D07A8129A6D4607C5204603A92430DD
:405140000C9A03F0DBF802466846808B3080204600F0F8FF1046D9E770B50D460446FFF761FA01280AD0E87AA97A00020143A07801F054FD012808D0002070BD00222421BF
:40518000204602F0FBFD242070BD28214C200155204600F0A3FB282070BD0000002801D0002000E003484030C07F012800D0002070470000941800200146002049070ED591
:4051C0000021084B03E0002901D0002200E01A461279022A04D0491C0906090EF3D0704701207047941800200146002049070ED50021084B03E0002901D0002200E01A467B
:405200001279022A04D0491C0906090EF3D07047012070479418002010B5044680346068002803D00DF0CCF90020606010BD403041707047403081707047403001707047BD
:405240000171704792001018C166704770B53C2501F080F9040004D020460021433001F033FCFF222946204600F0D4FB002C02D0A07801F0F1F870BD10B5002801D00020DB
:4052800000E00348002802D0008904F0D1FF10BD9418002010B5002801D0002000E00448002804D00179072901D100F047F810BD9418002010B501F04DF9002802D08078AB
:4052C00001F0CAF810BD00207047000070B50546008A00281ED01049F122897A1140C90618D5294640314A8A098A521C4A4392B2D10800D10121540801E0621A94B2A04298
:40530000FBD9FEF767FF012804D1298AA878224601F04AFD70BD00002C18002010B50023054C0B60248A944204D992001018C26E0A60C36610BD00004C19002038B5044631
:4053400000200090A079002814D14020015D052901D00E290ED168460DF0C4F8002809D12046009902F0E8FC03481021C28A2046FFF746FC38BD00002C18002010B50B4671
:4053800004460146184602F065F9002802D020460DF00CF910BD13B5044601AA11460620FEF7AAF86846818861811CBD002800D10220704770470000F8B504462346401DF6
:4053C000543300909A1EA078911E01F029FB25464035A88A298A8000FCF700FF401E81B2688A884203D96982A07802F077F820460021433001F068FB27480088E88102F09E
:405400009DFFE989891C8AB26179FFF7A3FD01F009FD02F093FF2A8A6179FFF79BFD074601F0F4FC688A002806D01C49088A032212021043088202E0002002F043F81748BD
:40544000803801886E8A002E0CD0304648431449FCF7B4FF0004000C01D0401C80B21149488002E00F4800214180288A704381B2A07801F045FFFF2228374932B9B2134695
:40548000204602F02DFDE98AA07801F099FEA07801F056FAF8BD000080102E40E0112E4071020000F81000207FB504468034616805460E46183108226846FCF7C0FF31466D
:4054C0002031082202A8FCF7BAFF102168460CF0A3FF6068102108300CF09EFF60682B46083024331022694602F0F4FE7FBD10B504460821FFF78FFB10212046FFF78BFB00
:40550000207905281FD006281DD008281AD12189002004F005FE072020712046FFF782F8014620464030012913D00E21017000210176204600F0A2FF2046FFF76DFE2046AB
:40554000FFF7C4FE10BD20890122002104F0CCFDE1E70521EAE70000FFB581B01F4604460821FFF758FB10212046FFF754FB2079082803D0092804D0042203E00422012565
:4055800001E009220025204600F032FE264600204036307022712046FFF73EFE0398002D02D0012808D00BE001280AD120890022029904F099FD04E02189029804F0B0FD24
:4055C000012700203076012F04D0204600F056FF05B0F0BD02983073204602F0FBFB054605480121C28A2046FFF70AFB002DEFD109202071ECE700002C18002070B50C4665
:405600000546FFF70FF8012809D108212846FFF702FB0023012221462846FFF79DFF70BD10B5044600F0E4FD2046FFF7F5FD00214034217010BD70B505461A24FEF7F2FF06
:40564000012809D108212846FFF7E5FA0023012221462846FFF780FF70BD0000F8B50446002000900E4668460CF03CFF002801D00D20F8BD8420005908212030009D00F040
:405680001AFA20460421383000F015FA002E02D1204600F0E9FD2946204602F0DCFA0E480821C28A2046FFF7ABFA204600F057FF25464035002808D0204600F023F8002819
:4056C00001D0092028700020F8BD08202870204600F0C0FFF7E700002C180020014610B540310A460978082906D0092907D00A2901D100F091F810BD0B20107010BD00F01B
:4057000001F810BD70B50446007925464035052805D0062803D008280FD00C2070BD03220621204602F02AFB0D480821C28A2046FFF766FA1120287010E006202873204641
:4057400002F048FB0646AA8A0A20424301212046FFF756FA002E01D109202071002070BD2C18002038B504460020009068460CF0B9FE002801D00D2038BD2046009D00F036
:40578000B1F908202071204600F06EFD2946204602F094FA00213D2001550F2040210855204600F057FF002038BD00B5024600F01FFD10214032117000BD10B50446FEF700
:4057C00031FF012809D04020005D112805D100231A4606212046FFF7BFFE10BD10B5FFF786FE10BD38B504460021684600910CF079FE00280CD12046009902F0E0FA0548E8
:405800000821C28A2046FFF7FBF90D204034207038BD00002C18002038B504460021684600910CF05FFE002801D00D2038BD2046009902F0B9FA05480821C28A2046FFF74C
:40584000DFF90C2040342070002038BD2C18002000787047F8B50025002801D0002400E01A4C002C28D0204600F0CBFC002823D0207903281CD005281CD026464036B18A01
:40588000A07801F047FDB078012815D10021204601F0FDFE274680373868002802D00CF08FFE3D600020B0702079072805D007E0042000E006202071F8BD2046FFF706FD7A
:4058C0000221204600F0E0FEF8BD00009418002010B54C22115400F04CF810BD10B50446FF21FFF798F909202071A07801F038FD10BD000038B5FF216A461180002801D075
:40590000002400E0084C002C0DD011460620FDF7F3FD684601882046FFF73DFD03480068C1692046884738BD941800202811002010B504468079002809D022214C2001559E
:40594000FF212046FFF767F9204600F012F810BD10B5037902464032002B03D01173092B02D003E0002100E02221117300F001F810BDFEB5044600890027009027812079BC
:4059800026464036002817D0012815D002280AD112E002AA01A9204601F04AFE002807D101980CF003FE204601F06AFE0028F0D02046FEF789FDB7762546803528680028D9
:4059C00002D00CF0FDFD2F606868002802D00CF0F7FD6F60317B002919D0009800F064F8A078002100F0C0FF2046FFF7A9FAA07801F0FEF8A07800F02FFDFF212046FFF78F
:405A00000AF90B20FFF7E2F800F068FCFEBD1F213173E2E7F8B517460E46054602F08AFC04003CD020460C3001F03EF82046062200211830FCF70CFD2046062200211230CE
:405A4000FCF706FD1648224600683946436A28469847074626702846FEF7E4FD012148406070002D10D02889608028464030C1782171002E0FD169796171018AE180418A28
:405A80002181808A608106E00648008BC005C00F2071002060803946204604F0C4FAF8BD1011002000102E400A4610B50146002004F0D6FB10BD10B50CF08AFA10BD00004A
:405AC00000B50146FFF716FA002801D0002000E00348002802D002898A4200D0002000BD9418002038B5044680346068002806D168460CF007FD002801D10098606060681C
:405B000038BD000010B5014600F086FB0128887802D0FEF791FD10BD8C214843024940186030007F10BD00007418002070B5054604464035A87F012811D1A1788C20084ACD
:405B4000484380186030067F3046FEF739FF002805D10220A877A078314601F0F3F870BD7418002010B50C4CA07A002813D0FEF7D3FF0A48027F417F408B00F0B7FB012895
:405B800009D10020A07200F045FF05498989090B01D000F03BFA10BD3019002074180020A0102E4070477047490510B5490F0B00FCF74AFE060704080C0C0F073E21FFF780
:405BC00087FE10BD0821FFF7C3FE10BDFFF7D1FE10BDFFF7ADFE10BDF8B507460025002D01D0002600E0204E00F0E2FE3046403044890021418100F0E5FE304600F001FB7A
:405C000001282BD1A00702D52846FFF723FEE00602D52846FFF76EFEA00601D5FEF77CFF600601D500F014FB200602D5284600F01DF8600702D5284600F02CFA380402D543
:405C40002846FFF727FB780402D52846FFF714FBE00703D021463046FFF7A6FF6D1C2D062D0EBCD0F8BD000094180020F8B5002801D0002400E0284C002C4BD0254640355D
:405C8000A878012846D1FF278820493700593E46002805D02149897A890601D5878AC68A2046FEF7BFFC012834D002F047FB2A8A6179FFF74FF9009001F0A8F800983346B4
:405CC000283081B23A46204602F00AF9E98AA07801F076FA12480188688A124E002810D048431149FCF76AFB0004000C01D0401C80B27080A07DC107C90F002001F0A4FB0C
:405D000001E000207080288A698A484381B2A07801F0F6FAF8BD0000941800202C18002060112E40F81000207102000001490968096808472811002070B50D460026194AE2
:405D40000146002801D0002401E014462034002C26D0204600F060FA01280AD18C20484380186030007FFEF72BFE002801D101F0B1FF0D48006881692046884700280CD0E3
:405D800020464030817EA94202D3491B817600E086762089294604F004FA204600F05AFC70BD0000741800202811002070B503460088FFF785FE040013D000F022FA0028A5
:405DC0000FD02079092819D02546997840352973204601F0FFFF0646A878012803D0AA8A02E0022070BDEA880A20424301212046FEF706FF002E01D109202071002070BDB8
:405E00000EB5002217216B460292198100905A810120029B00990CF073FC0EBDF8B518480024807A002822D1164E0025B089000B22E0204600F0B6FE1249A0394018078834
:405E40002A462146384600F051FA012810D00E480122478305770A4944778A72002D01D0002000E02030002801D000F0F3FBF8BDB089000B641CE4B20028DAD1F8BD000004
:405E800030190020A0102E407418002010B50088FFF716FE002809D0014640310C460978082905D00B2903D00C2010BD022010BDFFF728FC002801D009202070002010BD1E
:405EC00070B503460088FFF7FBFD040008D0254640352878082805D00B2803D00C2070BD022070BD8420005910220830991CFCF7A6FA2046FFF7D8FA2878082804D02046C8
:405F0000FFF78AFC002801D00A202870204600F0A1FB002070BD000010B50C46002121700088FFF7CDFD03000BD000F06AF9002807D00948F121807A0840C00603D4112037
:405F400010BD022010BD022020701A8A1889002104F0A2F9002010BD2C180020F8B50F46002100910088FFF7ABFD040012D000F048F900280ED0E079410641D4617E0226BA
:405F80004A07002A08DB8907402500291ADA2843E07135E00220F8BD02F0CCF90021017021894180A1898180217E4170E189C1803E7005460178134803F028FE284604F0A7
:405FC0000FF91DE0204600F02DF9012806D068460CF088FA002803D00720F8BD2A20F8BDE07900992843E071204601F01DFF607E0421304360760448C28A2046FEF700FEC1
:406000000020F8BD1D0400002C1800203EB500220F236C460292238100910190628169460EC900200CF06CFB3EBD0000F8B50F46054600F08FFA040025D0032020712546EE
:4060400000264035EE76E6702046FFF7B5F901F0A3F80920FEF7BAFDA07800F0B7FD0121204600F011FB2E706E70AE703A4600212046FFF7CFFC0649887B401C8873A078FD
:40608000FFF754FEF8BD284601F06AF9F8BD00007418002010B5002801D0002000E0094800280DD0014640310A464978022901D100215170807DC107C90F002001F0C4F999
:4060C00010BD00009418002070B503460D460088FFF7F6FC04000BD000F093F8002807D01248F121807A0840C00603D4112070BD022070BD20464030418A008A491C414371
:406100000804C10C5888884201D2122070BD20822079072802D12046FFF7D8F8022028702089002104F0E0F8002070BD2C180020016A491C016204D1817E491C4906490E2E
:4061400081767047C169491CC16104D1C17E491C4906490EC1767047F0B5074687B003A8009005A800260D460190002F01D0002400E01B4C002C05D06846FCF7BDF90028AD
:4061800003D00BE0022007B0F0BD68460089C00704D18C2200212046FCF75AF9114829460068826820469047050016D1A77066762746267140373E70204600F019F8204621
:4061C00001F05AFA084820820848BE77807AF121084000D001202075E682E8B2D3E700009418002028110020B80B00002C180020002101628176C161C176203001774177AD
:4062000070470079002805D0012803D0022801D001207047002070474030807F002800D00120704740300078002807D0012805D0052803D00E2801D00120704700207047B1
:4062400010B5807801F098F9002800D0012010BD10B500F0DFFB03498989090B01D0FFF7D5FE10BDA0102E4070B5054604464035A87F002825D1FF206075A0788C21154AE7
:40628000484380186030417F8C23491CC9B24177A0785843104B8018DB896030994201D300214177A0788C21484380186030467F0677A1783046FEF783FB002802D001202B
:4062C000A87770BD0220A877A078314600F03AFD70BD0000741800204C1900200020401C0006000EFBD0002070470000F0B515468207920F85B0000A02926A469080002DE1
:4063000001D0002400E0524C002C28D0084600F049FC07466846808800280BD00298012843D0022841D003280BD03D20005D012870D087E04748381801882046FFF72BF8B5
:4063400080E00020029002A80CF0ACF8002807D03D20005D012878D12046FFF7E9FE74E06846029E8388324600213846FCF7D6FF3848381801882046FFF70DF8284600F0AF
:40638000EBFA01AA21463046FEF7FAFD002806D030460CF0F7F83D204C21085528E0F5773146204601F0CEFA4FE0002000902089039068460CF066F8002802D0002005B002
:4063C000F0BD6846009E8388321D00213846FCF7A5FF2048381801882046FEF7DCFF284600F0BAFA25464035287E00280CD103E02046FFF773FA28E001AA21463046029B27
:40640000FEF7F6FD002806D030460CF0B1F83D202873EDE713E00298FEF7CCFF01460398307003980901000A0843707068468088B070000AF0703046FFF7E2FC05E0204611
:40644000FFF776FE284600F087FA0120B7E700009418002000102E4010B5074A917B002901D0491E91730021FFF776FE002801D0002010BD012010BD74180020F8B507463E
:4064800006464037B87F00282DD0B0788C2100904843234945186035287F0099FEF7A5FA01281ED0287F401CC4B21E48C089A04200D800240020B877FF276F772F77A8775E
:4064C00002460146009800F0B9FD717DFF2903D0304601F092F8777501F0FCFB0025114F19E00320B877F8BD00200090224669463046FEF713FF0099002904D0FF231A4640
:406500003046FEF78AFA641CF889E4B2A04200D800246D1CEDB2F889A842E5D8F8BD0000741800204C19002010B502460021084B03E0002901D0002000E0184604799442B2
:4065400004D0491C0906090EF3D0002010BD00009418002000B50120FFF7E6FF00BD10B5044601F0E7FE2189018080346168416061682831816003F0EDFD10BDF7B50646FF
:40658000087982B00C46092807D0A078F0770846FFF742FE012806D010E030460CF006F8022005B0F0BDA1788C20294A484380186030007FFEF704FA012810D0A078FEF775
:4065C000EDFD01280BD037780121304601F02EFB25462035062F38D00B2F0FD107E06846027C21463046FEF7C9FE0D20D9E72046FEF718F8012801D1002028772046FFF71B
:4066000081FA054604AA21463046FEF726FD01205F2108556946097C002001910090A07833463A46294600F037FB69460A7CA0780323294600F0DAFEA0782946FDF722FF95
:4066400030460BF0B3FF0020ABE70120D5E700007418002010B502464032937F0021002B03D1927E002A00D00121064A927A002A00D000210279092A00D10121807800F0DF
:4066800003FF10BD3019002070B50C460546FDF7C9FF00280BD1012C06D92879092806D02846FFF7CDFD0446002C02D004E0012402E0A87DC007FAD1A87DC107C90F204629
:4066C00000F0C2FE70BD0000012807D0082804D104480282034808300180704701488038FAE70000A0102E40014908817047000000102E4010B50446FF20F130012C01D1D7
:40670000FF20D530002200F001FF044A108A044980B2A0430880108210BD000000102E40FC100020034B198A034A89B2814311801982704700102E40FC10002010B504466F
:40674000012802D0082C07D102E0FF20D53001E0FF20F13000F0D2FE0348018A034A89B221431180018210BD00102E40FC100020034B198A034A89B201431180198270473E
:4067800000102E40FC10002070B5054604462035A87FF122800012018018164A86183088400840003080002906D10121AB7FFF220903601D00F0E8FD89212046AB7F802226
:4067C0004901113000F0E0FD83212046AB7F202249010B3000F0D8FD43212046AB7F40228901173000F0D0FD208801210843308070BD000000102E40F8B505460120A8402C
:4068000086B214460F46012231467C2000F07EFE3A463146782000F079FE6078267800020643E078A2780002024360792379000203430C2045430D20800105492818441856
:406840002680001D44182280001D40180380F8BD00102E40CB065B0E0343480901021943D00108430121C902084301490881704780142E404278037812021343084A138296
:40688000C37880781B021843908248780B78000203431383C8788978000201439183704700142E40024A1080000C90801181704700142E40044A002180180288491C89B232
:4068C0001029FAD37047000000102E40024A10820148803081817047A0102E4010B5054A1082084600F036FE024A0021A03A8018018010BDA0102E4010B50B46044600F0FC
:4069000017F819462046FFF7E1FF10BD002310B5F121064A090118468C182380091D401CC0B289B20828F7D310BD000000102E40024A10820148803001817047A0102E4045
:4069400010B504490882FF20002220211D3000F0DDFD10BDA0102E40000202494D3008807047000000102E4010B5084B074C0202A03B0029208202D075321A8010BD04492E
:406980000020088088807632F7E70000A0102E40201A2E40054B198807229202002801D0114300E09143198070470000001F2E4000B5034908884880FFF7B4FE00BD000091
:4069C000FC10002000B502484088FFF7D1FE00BDFC10002010B5FCF74FFE10BD014952200880704700102E4000210170704700000748808806492039098B884201D8081A0A
:406A000003E00022D243101A401880B27047000020112E400148008AC0B27047A0102E4070B5084C049D2082074804890548603006880E8001891180808818806007400F16
:406A4000287070BDA0102E40E0112E400148008970470000C0102E4000280FD00D4A108B0870000A4870908B8870000AC8700948203000880871000A48717047064A108881
:406A80000870000A487090888870000AC8701089F0E7000040102E40C0112E400148008A70470000001A2E40064B1A8999891B8A0270120A42708170090AC1700371190A04
:406AC0004171704760102E40012904D00549098BC90B017070470349403109898907C90FF7E7000000102E40FFB5044601230025FF202649DB03264E89B0002C05D0022CD1
:406B000003D0032C30D0062C24D1358BAC042F07A40E3F0F012F21D0252C21D806230021F820FCF7FBFB062C13D3A01F83B26A460021F820FCF7F2FB308BC6B212980028F6
:406B400007D0A21F6946FBF77AFC129800192038867600200C990D800DB0F0BD0C2C07D00A881A430A80F7E7358BAC04A40EF5E706230021F820FCF7D1FB06230021F820AC
:406B80000A9AFCF7CBFB308BE3E70000001F2E40E0102E40024800884005C00F70470000001F2E4001484089704700004C190020044A10820448028980894843101880B2EB
:406BC00070470000A0102E404C1900208C21074B414300B5C918FF2260314A770A7700228A77114600F02AFA00BD0000741800208C225043074A10B58018FF2160304177E0
:406C00000177002181770448418EFF201D3000F075FC10BD741800202C18002000B5044A1082034880308088022200F003F800BDA0102E4010B50023884201D8081A03E0EC
:406C40000024E443201A4018044980B2884201D8824200D90123184610BD0000FF7F000070B55478157824022543D47888232602947834435679127936023243002900D0FD
:406C80009823044908820348A038181805808480028170BDA0102E40FFB581B014460D4607460A9E0B9BFFF783FF002E0AD0009333460021049AFCF7C1FB05484019C455B2
:406CC00005B0F0BD0021049AFCF79EFBF5E700000011002070B502460448054D808808242C800B460021FCF78FFB70BD4C190020A0142E4010B521240246640104495320B5
:406D00000880102300212046FCF77EFB10BD000000102E40417802780902044B0A431A83C1788078090208439883704760142E40034A1082802001430148803001817047B3
:406D4000A0102E40054A1082044A6032908B0009000108439115084390837047A0102E4030B500210F4B0A46012809D0032802D005280AD107E04021198102210A2204E01F
:406D800004210C2201E004210D221882054C20342088C0B205460D42FAD022800021198230BD000080142E4010B5044607480482074801808280032189030820FFF7BEFC03
:406DC000200202497530A039088010BDA0102E40201A2E40054A1082044A60321183000202494B30A039088070470000A0102E40054A491E1082044A603211830002024931
:406E00004C30A03908807047A0102E400349884200D908460249088070470000FF0F000060112E400349884200D908460249888070470000FF0F000060112E4088230029E4
:406E400000D09823084908820748A038191808881070000A507088889070000AD07008891071000A50717047A0102E4010B51446024606480B46C0880021FCF7ABFA012C3A
:406E800002D103495420088010BD00004C19002000102E40064A11880170090A417091888170090AC1700349542008807047000080142E4000102E403E21095CF1238A009A
:406EC0001B01D218082903D202490088511808807047000000102E400121814010B589B200227C2000F012FB10BD0000FEB5FF210120FFF7FFFBFF210820FFF7FBFB3020BA
:406F0000FFF710FC3F48802101803F483F4D00784007400F02286FD001286BD100202880002211460320FCF7E7FA394E3949B08D8882384F002420373248A0300482308F9E
:406F400038822046FFF754FE641C2406240EF3D0B08F38832E48103000F052F9716930690191009069464879C021084369464871684600F06DF900F055F82548214C4030FB
:406F80004188A03421838188A1831E49C088C0318880708E38802048002606823920FFF7E7FB184F532038801C490720088354203880E020FFF77EFCE820FFF77BFCF020F4
:406FC000FFF778FC0020FDF7BBFF13488682282101838015A0810F48403086815B203880094800784007400F022807D0012801D10B482880FEBDFFE7032090E70848C01CB5
:40700000F7E7000000102E404C190020001F2E402C180020C0112E40001A2E4080142E40E0230000044800218183018302497420603908807047000060102E40074B18823C
:40704000064B6033988B00090001084399158843002A01D11021484098837047A0102E40F3B50D2284B0920100924A780B78120213430393CA788B78120213434A7909792D
:40708000FF20120211431A4A8C46918B9E460291118B01911649742260390A80154900220F7821E00121124B9140009C603BE3181D8889B21C881B88039E6E4075466540DA
:4070C00064462E435C4026430CD1029B194209D00199D140CB070499DB0F8B4202D1104606B0F0BD521CD2B29742DBD8F8E7000060102E406C18002030B50949FF208C8B19
:40710000084A00210125137805E02A468A40224204D0491CC9B28B42F7D830BD084630BD60102E406C18002010B50446E020FFF7C1FB20782246401CC3B20021E020FCF708
:4071400009F910BD42790021012A02D901214171090342790A430179042914D049001143827B032A01D8D2001143427B52010A43817909021143012252031143054A1183C0
:4071800000889083704711460122920211430222E5E7000000102E4000B50120FFF7C2FA01494120088000BD00102E4000B50120FFF7DEFA01494020088000BD00102E40A6
:4071C000024A10820148603081817047A0102E4010B5044C208204488180028183815143018210BDA0102E40A0132E40034B1882024820388180028070470000A0102E4071
:407200004178027809020A4306490A80C2788378120213438B804279007912021043088170470000C0112E404178027809020A4306490A81C2788378120213438B8142795B
